{
  "_format": "hh-sol-artifact-1",
  "contractName": "ActorFactory",
  "sourceName": "contracts/ActorFactory.sol",
  "abi": [
    {
      "anonymous": false,
      "inputs": [
        {
          "indexed": true,
          "internalType": "address",
          "name": "actorAddress",
          "type": "address"
        },
        {
          "indexed": true,
          "internalType": "string",
          "name": "mainchainAddress",
          "type": "string"
        },
        {
          "indexed": false,
          "internalType": "bytes32",
          "name": "salt",
          "type": "bytes32"
        }
      ],
      "name": "Deployed",
      "type": "event"
    },
    {
      "inputs": [
        {
          "internalType": "string",
          "name": "mainchainAddress",
          "type": "string"
        },
        {
          "internalType": "bytes32",
          "name": "salt",
          "type": "bytes32"
        }
      ],
      "name": "deploy",
      "outputs": [
        {
          "internalType": "contract Actor",
          "name": "",
          "type": "address"
        }
      ],
      "stateMutability": "nonpayable",
      "type": "function"
    },
    {
      "inputs": [
        {
          "internalType": "string",
          "name": "mainchainAddress",
          "type": "string"
        },
        {
          "internalType": "bytes32",
          "name": "salt",
          "type": "bytes32"
        },
        {
          "internalType": "bytes",
          "name": "signature",
          "type": "bytes"
        },
        {
          "internalType": "bytes",
          "name": "key",
          "type": "bytes"
        }
      ],
      "name": "deployAndExecute",
      "outputs": [
        {
          "internalType": "bool",
          "name": "",
          "type": "bool"
        },
        {
          "internalType": "bytes",
          "name": "",
          "type": "bytes"
        }
      ],
      "stateMutability": "nonpayable",
      "type": "function"
    }
  ],
  "bytecode": "0x608060405234801561001057600080fd5b5061114b806100206000396000f3fe608060405234801561001057600080fd5b50600436106100365760003560e01c8063e7a0a7ce1461003b578063f1962fec1461006b575b600080fd5b61004e610049366004610223565b61008c565b6040516001600160a01b0390911681526020015b60405180910390f35b61007e61007936600461026f565b61012f565b604051610062929190610343565b60008082858560405161009e906101cd565b6100a99291906103a8565b8190604051809103906000f59050801580156100c9573d6000803e3d6000fd5b50905084846040516100dc9291906103c4565b6040518091039020816001600160a01b03167fb7517735f5767db65a3d70ee560ea291c1e2b7d51a911a1f370ab8bf13f612668560405161011f91815260200190565b60405180910390a3949350505050565b6000606060006101408a8a8a61008c565b604051631f6a1eb960e01b81529091506001600160a01b03821690631f6a1eb990610175908a908a908a908a906004016103d4565b6000604051808303816000875af1158015610194573d6000803e3d6000fd5b505050506040513d6000823e601f3d908101601f191682016040526101bc919081019061041c565b925092505097509795505050505050565b610c31806104e583390190565b60008083601f8401126101ec57600080fd5b50813567ffffffffffffffff81111561020457600080fd5b60208301915083602082850101111561021c57600080fd5b9250929050565b60008060006040848603121561023857600080fd5b833567ffffffffffffffff81111561024f57600080fd5b61025b868287016101da565b909790965060209590950135949350505050565b60008060008060008060006080888a03121561028a57600080fd5b873567ffffffffffffffff808211156102a257600080fd5b6102ae8b838c016101da565b909950975060208a0135965060408a01359150808211156102ce57600080fd5b6102da8b838c016101da565b909650945060608a01359150808211156102f357600080fd5b506103008a828b016101da565b989b979a50959850939692959293505050565b60005b8381101561032e578181015183820152602001610316565b8381111561033d576000848401525b50505050565b8215158152604060208201526000825180604084015261036a816060850160208701610313565b601f01601f1916919091016060019392505050565b81835281816020850137506000828201602090810191909152601f909101601f19169091010190565b6020815260006103bc60208301848661037f565b949350505050565b8183823760009101908152919050565b6040815260006103e860408301868861037f565b82810360208401526103fb81858761037f565b979650505050505050565b634e487b7160e01b600052604160045260246000fd5b6000806040838503121561042f57600080fd5b8251801515811461043f57600080fd5b602084015190925067ffffffffffffffff8082111561045d57600080fd5b818501915085601f83011261047157600080fd5b81518181111561048357610483610406565b604051601f8201601f19908116603f011681019083821181831017156104ab576104ab610406565b816040528281528860208487010111156104c457600080fd5b6104d5836020830160208801610313565b8095505050505050925092905056fe60806040523480156200001157600080fd5b5060405162000c3138038062000c31833981016040819052620000349162000060565b6000620000428282620001cb565b505062000297565b634e487b7160e01b600052604160045260246000fd5b600060208083850312156200007457600080fd5b82516001600160401b03808211156200008c57600080fd5b818501915085601f830112620000a157600080fd5b815181811115620000b657620000b66200004a565b604051601f8201601f19908116603f01168101908382118183101715620000e157620000e16200004a565b816040528281528886848701011115620000fa57600080fd5b600093505b828410156200011e5784840186015181850187015292850192620000ff565b82841115620001305760008684830101525b98975050505050505050565b600181811c908216806200015157607f821691505b6020821081036200017257634e487b7160e01b600052602260045260246000fd5b50919050565b601f821115620001c657600081815260208120601f850160051c81016020861015620001a15750805b601f850160051c820191505b81811015620001c257828155600101620001ad565b5050505b505050565b81516001600160401b03811115620001e757620001e76200004a565b620001ff81620001f884546200013c565b8462000178565b602080601f8311600181146200023757600084156200021e5750858301515b600019600386901b1c1916600185901b178555620001c2565b600085815260208120601f198616915b82811015620002685788860151825594840194600190910190840162000247565b5085821015620002875787850151600019600388901b60f8161c191681555b5050505050600190811b01905550565b61098a80620002a76000396000f3fe6080604052600436106100435760003560e01c80631f6a1eb91461004f578063aea657b114610086578063affed0e0146100b3578063d75b501c146100d757600080fd5b3661004a57005b600080fd5b34801561005b57600080fd5b5061006f61006a366004610509565b6100f9565b60405161007d9291906105d1565b60405180910390f35b34801561009257600080fd5b5061009b606681565b6040516001600160a01b03909116815260200161007d565b3480156100bf57600080fd5b506100c960015481565b60405190815260200161007d565b3480156100e357600080fd5b506100ec610432565b60405161007d91906105f4565b604051637bf41d7760e11b8152600090606090829060669063f7e83aee9061012b908a908a908a908a90600401610637565b602060405180830381865afa158015610148573d6000803e3d6000fd5b505050506040513d601f19601f8201168201806040525081019061016c9190610669565b9050806101c05760405162461bcd60e51b815260206004820152601d60248201527f5369676e617475726520766572696669636174696f6e206661696c656400000060448201526064015b60405180910390fd5b60405163b8c561f760e01b815260009060669063b8c561f7906101e9908b908b9060040161068b565b600060405180830381865afa158015610206573d6000803e3d6000fd5b505050506040513d6000823e601f3d908101601f1916820160405261022e9190810190610729565b9050600060405161023f91906107ac565b604051809103902081805190602001201461028f5760405162461bcd60e51b815260206004820152601060248201526f082c8c8e4cae6e640dad2e6dac2e8c6d60831b60448201526064016101b7565b6040516307a5566f60e01b81526000906066906307a5566f906102b8908c908c9060040161068b565b600060405180830381865afa1580156102d5573d6000803e3d6000fd5b505050506040513d6000823e601f3d908101601f191682016040526102fd919081019061086b565b90506000806000808480602001905181019061031991906108a0565b935093509350935060015484146103635760405162461bcd60e51b815260206004820152600e60248201526d09cdedcc6ca40dad2e6dac2e8c6d60931b60448201526064016101b7565b6001805490600061037383610911565b9190505550600080846001600160a01b031684846040516103949190610938565b60006040518083038185875af1925050503d80600081146103d1576040519150601f19603f3d011682016040523d82523d6000602084013e6103d6565b606091505b5091509150816103e557600080fd5b7f13848c3e38f8886f3f5d2ad9dff80d8092c2bbb8efd5b887a99c2c6cfc09ac2a82826040516104169291906105d1565b60405180910390a1909e909d509b505050505050505050505050565b6000805461043f90610772565b80601f016020809104026020016040519081016040528092919081815260200182805461046b90610772565b80156104b85780601f1061048d576101008083540402835291602001916104b8565b820191906000526020600020905b81548152906001019060200180831161049b57829003601f168201915b505050505081565b60008083601f8401126104d257600080fd5b50813567ffffffffffffffff8111156104ea57600080fd5b60208301915083602082850101111561050257600080fd5b9250929050565b6000806000806040858703121561051f57600080fd5b843567ffffffffffffffff8082111561053757600080fd5b610543888389016104c0565b9096509450602087013591508082111561055c57600080fd5b50610569878288016104c0565b95989497509550505050565b60005b83811015610590578181015183820152602001610578565b8381111561059f576000848401525b50505050565b600081518084526105bd816020860160208601610575565b601f01601f19169290920160200192915050565b82151581526040602082015260006105ec60408301846105a5565b949350505050565b60208152600061060760208301846105a5565b9392505050565b81835281816020850137506000828201602090810191909152601f909101601f19169091010190565b60408152600061064b60408301868861060e565b828103602084015261065e81858761060e565b979650505050505050565b60006020828403121561067b57600080fd5b8151801515811461060757600080fd5b6020815260006105ec60208301848661060e565b634e487b7160e01b600052604160045260246000fd5b600067ffffffffffffffff808411156106d0576106d061069f565b604051601f8501601f19908116603f011681019082821181831017156106f8576106f861069f565b8160405280935085815286868601111561071157600080fd5b61071f866020830187610575565b5050509392505050565b60006020828403121561073b57600080fd5b815167ffffffffffffffff81111561075257600080fd5b8201601f8101841361076357600080fd5b6105ec848251602084016106b5565b600181811c9082168061078657607f821691505b6020821081036107a657634e487b7160e01b600052602260045260246000fd5b50919050565b600080835481600182811c9150808316806107c857607f831692505b602080841082036107e757634e487b7160e01b86526022600452602486fd5b8180156107fb57600181146108105761083d565b60ff198616895284151585028901965061083d565b60008a81526020902060005b868110156108355781548b82015290850190830161081c565b505084890196505b509498975050505050505050565b600082601f83011261085c57600080fd5b610607838351602085016106b5565b60006020828403121561087d57600080fd5b815167ffffffffffffffff81111561089457600080fd5b6105ec8482850161084b565b600080600080608085870312156108b657600080fd5b845160208601519094506001600160a01b03811681146108d557600080fd5b60408601516060870151919450925067ffffffffffffffff8111156108f957600080fd5b6109058782880161084b565b91505092959194509250565b60006001820161093157634e487b7160e01b600052601160045260246000fd5b5060010190565b6000825161094a818460208701610575565b919091019291505056fea26469706673582212206bb75120b832a01d8ebaf3521b088668b7fe32d4d157fa7e65b3db99344ebf4d64736f6c634300080f0033a264697066735822122018066bd45782b6c3b8ecd6252613c5e3bbcad8612ce24bcb076bb481f7a15a7964736f6c634300080f0033",
  "linkReferences": {},
  "deployedLinkReferences": {}
}