{
  "_format": "hh-sol-artifact-1",
  "contractName": "Actor",
  "sourceName": "contracts/Actor.sol",
  "abi": [
    {
      "inputs": [
        {
          "internalType": "string",
          "name": "_mainchainAddress",
          "type": "string"
        },
        {
          "internalType": "enum L1Type",
          "name": "_l1Type",
          "type": "uint8"
        }
      ],
      "stateMutability": "nonpayable",
      "type": "constructor"
    },
    {
      "anonymous": false,
      "inputs": [
        {
          "indexed": false,
          "internalType": "bool",
          "name": "success",
          "type": "bool"
        }
      ],
      "name": "Response",
      "type": "event"
    },
    {
      "inputs": [
        {
          "internalType": "bytes",
          "name": "signature",
          "type": "bytes"
        },
        {
          "internalType": "bytes",
          "name": "key",
          "type": "bytes"
        }
      ],
      "name": "execute",
      "outputs": [],
      "stateMutability": "nonpayable",
      "type": "function"
    },
    {
      "inputs": [],
      "name": "mainchainAddress",
      "outputs": [
        {
          "internalType": "string",
          "name": "",
          "type": "string"
        }
      ],
      "stateMutability": "view",
      "type": "function"
    },
    {
      "inputs": [],
      "name": "nonce",
      "outputs": [
        {
          "internalType": "uint256",
          "name": "",
          "type": "uint256"
        }
      ],
      "stateMutability": "view",
      "type": "function"
    },
    {
      "stateMutability": "payable",
      "type": "receive"
    }
  ],
  "bytecode": "0x608060405234620002765762000c15803803806200001d8162000290565b928339810190604081830312620002765780516001600160401b03908181116200027657820190601f84818401121562000276578251938285116200021c57602094601f1994620000748483018716880162000290565b9782895287838301011162000276579086929160005b8281106200027b575050826000918901015201519360028510156200027657855115620002325785519283116200021c5760019384548581811c9116801562000211575b83821014620001fb57838111620001b0575b50819284116001146200014b575050819293946000926200013f575b5050600019600383901b1c191690821b1790555b60ff8019600354169116176003553360018060a01b0319600054161760005560405161095e9081620002b78239f35b015190503880620000fc565b6000858152828120918516979193925b8882106200019857505083859697106200017e575b505050811b01905562000110565b015160001960f88460031b161c1916905538808062000170565b8087859682949686015181550195019301906200015b565b85600052826000208480870160051c820192858810620001f1575b0160051c019086905b828110620001e4575050620000e0565b60008155018690620001d4565b92508192620001cb565b634e487b7160e01b600052602260045260246000fd5b90607f1690620000ce565b634e487b7160e01b600052604160045260246000fd5b6064906040519062461bcd60e51b82526004820152601960248201527f496e76616c6964206d61696e636861696e2061646472657373000000000000006044820152fd5b600080fd5b8181018501518a82018601528894016200008a565b6040519190601f01601f191682016001600160401b038111838210176200021c5760405256fe5a600090818052807f0dca280ea3ca230b21284a5a56a2293bf036acd4796ead208ee9bbec18cead2755608060409181835260048036101561004b575b5050505036156100495780fd5b005b843560e01c9283631f6a1eb914610197575050508063affed0e0146101795763d75b501c1461007c5780808061003c565b346101755781600319360112610175578051826001938285549261009f8461079b565b808352602097889485850196828116908160001461015457506001146100f9575b5050506100cf925003836107d5565b6100eb835194859381855251928380928601528585019061080d565b601f01601f19168101030190f35b8181527fb10e2d527612073b26eecdfd717e6a320cf44b4afac2b0732d9fcbe2b7fa0cf695935091905b81831061013c5750889450508201016100cf38806100c0565b85548884018501529485019487945091830191610123565b925050506100cf94925060ff19168552151560051b820101869238806100c0565b5080fd5b50346101755781600319360112610175576020906002549051908152f35b8591859134610764576003199280843601126107605767ffffffffffffffff95833587811161075c576101cd9036908601610768565b6024989198968735838111610586576101e99036908901610768565b91906002549283159889809a610749575b8015610740575b156107005750600287018097116106ee578b6152085b8d3683106106ba575061022b915088610830565b9c60ff6003541695895196632f0853a360e01b885260028110156106a8579261026e8f9694938f938f8b989561027e976080928b015289015260848801916108b4565b91848684030160448701526108b4565b9082820301606483015282906001908154916102998361079b565b92838352858282169182600014610688575050600114610626575b5050508190038160675afa91821561061c5789908a936105cc575b501561058a578151820160e083820312610586576020966102f18885016108d5565b918785015195610303606087016108d5565b9260808701519660a08101519260c08201519460e08301519182116105815761033292908e0191018d0161086f565b986001600160a01b0395309087160361054e578f8314928315610530575b505050156104f9573a036104c2571692831561048057810361044d57610375906108e9565b6002555a613a971981019290831161043b5792889283928796957fb6caad5b328a3de9a49b44605241a4b72f6f1aa955829d12e37decfd84a0b8ca988451940192f1906103c06108f8565b50519015158152a15a840393841161041857611a9084019384811161042957611b7c01809411610418573a8402938085043a149015171561041857828080808088325af161040c6108f8565b50156104155780f35b80fd5b634e487b7160e01b83526011905281fd5b50634e487b7160e01b83526011905281fd5b634e487b7160e01b8952601187528789fd5b845162461bcd60e51b8152808801879052600e818a01526d09cdedcc6ca40dad2e6dac2e8c6d60931b6044820152606490fd5b855162461bcd60e51b81528089018890526019818b01527f546f20616464726573732063616e6e6f74206265207a65726f000000000000006044820152606490fd5b865162461bcd60e51b8152808a018990526012818c01527108ec2e640e0e4d2c6ca40dad2e6dac2e8c6d60731b6044820152606490fd5b875162461bcd60e51b8152808b018a90526012818d01527108ec2e640d8d2dad2e840dad2e6dac2e8c6d60731b6044820152606490fd5b9192509082610544575b50508e8080610350565b1490508e8061053a565b50895162461bcd60e51b8152808d018c9052600d818f01526c08ce4deda40dad2e6dac2e8c6d609b1b6044820152606490fd5b508f80fd5b8980fd5b845162461bcd60e51b8152602081890152601d818a01527f5369676e617475726520766572696669636174696f6e206661696c65640000006044820152606490fd5b9250503d808a843e6105de81846107d5565b82018583820312610586578251928315158403610618576020810151908582116106145761060d92910161086f565b918b6102cf565b8b80fd5b8a80fd5b85513d8b823e3d90fd5b8086528593509091907fb10e2d527612073b26eecdfd717e6a320cf44b4afac2b0732d9fcbe2b7fa0cf65b8285106106675750505001602001818e806102b4565b60209296508194939550805483858801015201910191938d94879492610651565b91509450602093915060ff191683830152151560051b0101908e806102b4565b634e487b7160e01b8f5260218d528d8ffd5b506106e0906106da9083356001600160f81b0319166106e6578d90610830565b916108e9565b90610217565b601090610830565b634e487b7160e01b8c5260118a528a8cfd5b62461bcd60e51b815260208b820152601f8c8201527f4f6e6c7920666163746f7279206f7220454f412063616e2065786563757465006044820152606490fd5b50323314610201565b508c546001600160a01b031633146101fa565b8680fd5b8480fd5b8380fd5b9181601f840112156107965782359167ffffffffffffffff8311610796576020838186019501011161079657565b600080fd5b90600182811c921680156107cb575b60208310146107b557565b634e487b7160e01b600052602260045260246000fd5b91607f16916107aa565b90601f8019910116810190811067ffffffffffffffff8211176107f757604052565b634e487b7160e01b600052604160045260246000fd5b60005b8381106108205750506000910152565b8181015183820152602001610810565b9190820180921161083d57565b634e487b7160e01b600052601160045260246000fd5b67ffffffffffffffff81116107f757601f01601f191660200190565b81601f8201121561079657805161088581610853565b9261089360405194856107d5565b81845260208284010111610796576108b1916020808501910161080d565b90565b908060209392818452848401376000828201840152601f01601f1916010190565b51906001600160a01b038216820361079657565b600019811461083d5760010190565b3d15610923573d9061090982610853565b9161091760405193846107d5565b82523d6000602084013e565b60609056fea26469706673582212202fae6f1ea24280851ea6e8c196bd16d7742ab109e4125316a0a7dd2e2b4e2a5664736f6c63430008120033",
  "deployedBytecode": "0x5a600080805260008051602061093b8339815191529190915560806040818152906004903682111561003a575b50505036156100385780fd5b005b833560e01c9182631f6a1eb9146101725750508063affed0e0146101545763d75b501c1461006957808061002c565b346101505781600319360112610150578051826001938285549261008c8461078d565b808352602097889485850196828116908160001461012f57506001146100e6575b5050506100bc925003836107c7565b6100d88351948593818552519283809286015285850190610800565b601f01601f19168101030190f35b81815260008051602061091b83398151915295935091905b8183106101175750889450508201016100bc38806100ad565b855488840185015294850194879450918301916100fe565b925050506100bc94925060ff19168552151560051b820101869238806100ad565b5080fd5b50346101505781600319360112610150576020906002549051908152f35b8492503461075757600319918483360112610753576001600160401b0394823586811161074f576101a6903690850161075b565b949096602495863582811161074b576101c2903690880161075b565b9360025491821597888099610738575b801561072f575b156106ef575060008051602061093b8339815191525495600287018097116106dd578b6152085b8d3683106106915750610214915088610823565b9c60ff6003541695895196632f0853a360e01b8852600281101561067f57926102578f9694938f938f8b9895610267976080928b015289015260848801916108a6565b91848684030160448701526108a6565b9082820301606483015282906001908154916102828361078d565b9283835285828216918260001461065f57505060011461060f575b5050508190038160675afa9182156106055789908a936105b5575b5015610573578151820160e08382031261056f576020966102da8885016108c7565b9187850151956102ec606087016108c7565b9260808701519660a08101519260c08201519460e083015191821161056a5761031b92908e0191018d01610861565b986001600160a01b03953090871603610537578f8314928315610519575b505050156104e2573a036104ab57169283156104695781036104365761035e906108db565b6002555a613a97198101929083116104245792889283928796957fb6caad5b328a3de9a49b44605241a4b72f6f1aa955829d12e37decfd84a0b8ca988451940192f1906103a96108ea565b50519015158152a15a840393841161040157611a9084019384811161041257611b7c01809411610401573a8402938085043a149015171561040157828080808088325af16103f56108ea565b50156103fe5780f35b80fd5b634e487b7160e01b83526011905281fd5b50634e487b7160e01b83526011905281fd5b634e487b7160e01b8952601187528789fd5b845162461bcd60e51b8152808801879052600e818a01526d09cdedcc6ca40dad2e6dac2e8c6d60931b6044820152606490fd5b855162461bcd60e51b81528089018890526019818b01527f546f20616464726573732063616e6e6f74206265207a65726f000000000000006044820152606490fd5b865162461bcd60e51b8152808a018990526012818c01527108ec2e640e0e4d2c6ca40dad2e6dac2e8c6d60731b6044820152606490fd5b875162461bcd60e51b8152808b018a90526012818d01527108ec2e640d8d2dad2e840dad2e6dac2e8c6d60731b6044820152606490fd5b919250908261052d575b50508e8080610339565b1490508e80610523565b50895162461bcd60e51b8152808d018c9052600d818f01526c08ce4deda40dad2e6dac2e8c6d609b1b6044820152606490fd5b508f80fd5b8980fd5b845162461bcd60e51b8152602081890152601d818a01527f5369676e617475726520766572696669636174696f6e206661696c65640000006044820152606490fd5b9250503d808a843e6105c781846107c7565b8201858382031261056f578251928315158403610601576020810151908582116105fd576105f6929101610861565b918b6102b8565b8b80fd5b8a80fd5b85513d8b823e3d90fd5b80865285935090919060008051602061091b8339815191525b82851061063e5750505001602001818e8061029d565b60209296508194939550805483858801015201910191938d94879492610628565b91509450602093915060ff191683830152151560051b0101908e8061029d565b634e487b7160e01b8f5260218d528d8ffd5b506106cf906106c99083357fff00000000000000000000000000000000000000000000000000000000000000166106d5578d90610823565b916108db565b90610200565b601090610823565b634e487b7160e01b8c5260118a528a8cfd5b62461bcd60e51b815260208a820152601f8b8201527f4f6e6c7920666163746f7279206f7220454f412063616e2065786563757465006044820152606490fd5b503233146101d9565b508b546001600160a01b031633146101d2565b8880fd5b8580fd5b8380fd5b8280fd5b9181601f84011215610788578235916001600160401b038311610788576020838186019501011161078857565b600080fd5b90600182811c921680156107bd575b60208310146107a757565b634e487b7160e01b600052602260045260246000fd5b91607f169161079c565b601f909101601f19168101906001600160401b038211908210176107ea57604052565b634e487b7160e01b600052604160045260246000fd5b60005b8381106108135750506000910152565b8181015183820152602001610803565b9190820180921161083057565b634e487b7160e01b600052601160045260246000fd5b6001600160401b0381116107ea57601f01601f191660200190565b81601f8201121561078857805161087781610846565b9261088560405194856107c7565b81845260208284010111610788576108a39160208085019101610800565b90565b908060209392818452848401376000828201840152601f01601f1916010190565b51906001600160a01b038216820361078857565b60001981146108305760010190565b3d15610915573d906108fb82610846565b9161090960405193846107c7565b82523d6000602084013e565b60609056feb10e2d527612073b26eecdfd717e6a320cf44b4afac2b0732d9fcbe2b7fa0cf60dca280ea3ca230b21284a5a56a2293bf036acd4796ead208ee9bbec18cead27a26469706673582212202fae6f1ea24280851ea6e8c196bd16d7742ab109e4125316a0a7dd2e2b4e2a5664736f6c63430008120033",
  "linkReferences": {},
  "deployedLinkReferences": {}
}